{
  "contractName": "FreelanceHub",
  "abi": [
    {
      "constant": true,
      "inputs": [
        {
          "name": "",
          "type": "uint256"
        }
      ],
      "name": "jobs",
      "outputs": [
        {
          "name": "status",
          "type": "uint8"
        },
        {
          "name": "owner",
          "type": "address"
        },
        {
          "name": "fee",
          "type": "uint256"
        }
      ],
      "payable": false,
      "stateMutability": "view",
      "type": "function"
    },
    {
      "constant": true,
      "inputs": [],
      "name": "numJobs",
      "outputs": [
        {
          "name": "",
          "type": "uint256"
        }
      ],
      "payable": false,
      "stateMutability": "view",
      "type": "function"
    },
    {
      "inputs": [],
      "payable": false,
      "stateMutability": "nonpayable",
      "type": "constructor"
    },
    {
      "constant": false,
      "inputs": [
        {
          "name": "fee",
          "type": "uint256"
        }
      ],
      "name": "createJob",
      "outputs": [
        {
          "name": "jobId",
          "type": "uint256"
        }
      ],
      "payable": false,
      "stateMutability": "nonpayable",
      "type": "function"
    },
    {
      "constant": false,
      "inputs": [
        {
          "name": "jobId",
          "type": "uint256"
        },
        {
          "name": "freelancerWallet",
          "type": "address"
        }
      ],
      "name": "startJob",
      "outputs": [],
      "payable": false,
      "stateMutability": "nonpayable",
      "type": "function"
    },
    {
      "constant": false,
      "inputs": [
        {
          "name": "jobId",
          "type": "uint256"
        },
        {
          "name": "commithash",
          "type": "bytes32"
        }
      ],
      "name": "commit",
      "outputs": [],
      "payable": false,
      "stateMutability": "nonpayable",
      "type": "function"
    },
    {
      "constant": false,
      "inputs": [
        {
          "name": "jobId",
          "type": "uint256"
        },
        {
          "name": "freelancerWallet",
          "type": "address"
        }
      ],
      "name": "finishJob",
      "outputs": [],
      "payable": false,
      "stateMutability": "nonpayable",
      "type": "function"
    }
  ],
  "bytecode": "0x60806040526000805534801561001457600080fd5b50610ccc806100246000396000f3fe608060405234801561001057600080fd5b50600436106100625760003560e01c8063180aedf3146100675780639212051c146100f1578063b1a9dcb21461010f578063ee7438021461015d578063f2f03877146101ab578063f4b1d376146101e3575b600080fd5b6100936004803603602081101561007d57600080fd5b8101908080359060200190929190505050610225565b604051808460018111156100a357fe5b60ff1681526020018373ffffffffffffffffffffffffffffffffffffffff1673ffffffffffffffffffffffffffffffffffffffff168152602001828152602001935050505060405180910390f35b6100f961027c565b6040518082815260200191505060405180910390f35b61015b6004803603604081101561012557600080fd5b8101908080359060200190929190803573ffffffffffffffffffffffffffffffffffffffff169060200190929190505050610282565b005b6101a96004803603604081101561017357600080fd5b8101908080359060200190929190803573ffffffffffffffffffffffffffffffffffffffff16906020019092919050505061046d565b005b6101e1600480360360408110156101c157600080fd5b8101908080359060200190929190803590602001909291905050506106fc565b005b61020f600480360360208110156101f957600080fd5b810190808035906020019092919050505061089c565b6040518082815260200191505060405180910390f35b60016020528060005260406000206000915090508060000160009054906101000a900460ff16908060000160019054906101000a900473ffffffffffffffffffffffffffffffffffffffff16908060010154905083565b60005481565b61028a610aa1565b600160008481526020019081526020016000206040518060a00160405290816000820160009054906101000a900460ff1660018111156102c657fe5b60018111156102d157fe5b81526020016000820160019054906101000a900473ffffffffffffffffffffffffffffffffffffffff1673ffffffffffffffffffffffffffffffffffffffff1673ffffffffffffffffffffffffffffffffffffffff16815260200160018201548152602001600282018054806020026020016040519081016040528092919081815260200182805480156103ba57602002820191906000526020600020905b8160009054906101000a900473ffffffffffffffffffffffffffffffffffffffff1673ffffffffffffffffffffffffffffffffffffffff1681526020019060010190808311610370575b505050505081526020016003820180548060200260200160405190810160405280929190818152602001828054801561041257602002820191906000526020600020905b8154815260200190600101908083116103fe575b50505050508152505090508173ffffffffffffffffffffffffffffffffffffffff166108fc82604001519081150290604051600060405180830381858888f19350505050158015610467573d6000803e3d6000fd5b50505050565b610475610aa1565b600160008481526020019081526020016000206040518060a00160405290816000820160009054906101000a900460ff1660018111156104b157fe5b60018111156104bc57fe5b81526020016000820160019054906101000a900473ffffffffffffffffffffffffffffffffffffffff1673ffffffffffffffffffffffffffffffffffffffff1673ffffffffffffffffffffffffffffffffffffffff16815260200160018201548152602001600282018054806020026020016040519081016040528092919081815260200182805480156105a557602002820191906000526020600020905b8160009054906101000a900473ffffffffffffffffffffffffffffffffffffffff1673ffffffffffffffffffffffffffffffffffffffff168152602001906001019080831161055b575b50505050508152602001600382018054806020026020016040519081016040528092919081815260200182805480156105fd57602002820191906000526020600020905b8154815260200190600101908083116105e9575b50505050508152505090506000600181111561061557fe5b8160000151600181111561062557fe5b14610698576040517f08c379a000000000000000000000000000000000000000000000000000000000815260040180806020018281038252601d8152602001807f54686973206a6f6220697320616c726561647920636f6d706c6574656400000081525060200191505060405180910390fd5b600581606001515111156106f7576040517f08c379a000000000000000000000000000000000000000000000000000000000815260040180806020018281038252603d815260200180610c64603d913960400191505060405180910390fd5b505050565b610704610aa1565b600160008481526020019081526020016000206040518060a00160405290816000820160009054906101000a900460ff16600181111561074057fe5b600181111561074b57fe5b81526020016000820160019054906101000a900473ffffffffffffffffffffffffffffffffffffffff1673ffffffffffffffffffffffffffffffffffffffff1673ffffffffffffffffffffffffffffffffffffffff168152602001600182015481526020016002820180548060200260200160405190810160405280929190818152602001828054801561083457602002820191906000526020600020905b8160009054906101000a900473ffffffffffffffffffffffffffffffffffffffff1673ffffffffffffffffffffffffffffffffffffffff16815260200190600101908083116107ea575b505050505081526020016003820180548060200260200160405190810160405280929190818152602001828054801561088c57602002820191906000526020600020905b815481526020019060010190808311610878575b5050505050815250509050505050565b600080670de0b6b3a76400008302905067016345785d8a0000811161090c576040517f08c379a0000000000000000000000000000000000000000000000000000000008152600401808060200182810382526033815260200180610c316033913960400191505060405180910390fd5b60008081546001019190508190559150610924610aa1565b6040518060a001604052806000600181111561093c57fe5b81526020013373ffffffffffffffffffffffffffffffffffffffff16815260200183815260200160006040519080825280602002602001820160405280156109935781602001602082028038833980820191505090505b50815260200160006040519080825280602002602001820160405280156109c95781602001602082028038833980820191505090505b508152509050806001600085815260200190815260200160002060008201518160000160006101000a81548160ff02191690836001811115610a0757fe5b021790555060208201518160000160016101000a81548173ffffffffffffffffffffffffffffffffffffffff021916908373ffffffffffffffffffffffffffffffffffffffff160217905550604082015181600101556060820151816002019080519060200190610a79929190610af1565b506080820151816003019080519060200190610a96929190610b7b565b509050505050919050565b6040518060a0016040528060006001811115610ab957fe5b8152602001600073ffffffffffffffffffffffffffffffffffffffff1681526020016000815260200160608152602001606081525090565b828054828255906000526020600020908101928215610b6a579160200282015b82811115610b695782518260006101000a81548173ffffffffffffffffffffffffffffffffffffffff021916908373ffffffffffffffffffffffffffffffffffffffff16021790555091602001919060010190610b11565b5b509050610b779190610bc8565b5090565b828054828255906000526020600020908101928215610bb7579160200282015b82811115610bb6578251825591602001919060010190610b9b565b5b509050610bc49190610c0b565b5090565b610c0891905b80821115610c0457600081816101000a81549073ffffffffffffffffffffffffffffffffffffffff021916905550600101610bce565b5090565b90565b610c2d91905b80821115610c29576000816000905550600101610c11565b5090565b9056fe4d696e696d756d20616d6f756e74206e656365737361727920746f206372656174652061206a6f6220697320302e31204554484d6178696d756d20616d6f756e74206f6620667265656c616e636572732061726520616c726561647920776f726b696e67206f6e2074686973206a6f62a165627a7a7230582011be20bb53010b49f60daa7f8b481ac130cfc4fda9325f0fa0678fa77447e1760029",
  "source": "pragma solidity ^0.5.0;\n\ncontract FreelanceHub {\n\n    enum JobStatus { ongoing, completed }\n\n    struct Job {\n        JobStatus status;\n        address owner;\n        uint fee;\n        address[] freelancers;\n        bytes32[] commits;\n    }\n\n    uint256 public numJobs = 0;\n    mapping(uint256 => Job) public jobs;\n\n    constructor() public {}\n\n    function createJob(\n        uint256 fee\n    ) public returns(uint256 jobId) {\n        uint256 actualFee = fee * 1000000000000000000;\n        require(actualFee > 100 finney, \"Minimum amount necessary to create a job is 0.1 ETH\");\n        jobId = ++numJobs;\n        Job memory newJob = Job(\n            JobStatus.ongoing,\n            msg.sender,\n            actualFee,\n            new address[](0),\n            new bytes32[](0)\n        );\n        jobs[jobId] = newJob;\n    }\n\n    function startJob(uint256 jobId, address payable freelancerWallet) public {\n        Job memory job = jobs[jobId];\n        require(job.status == JobStatus.ongoing, \"This job is already completed\");\n        require(job.freelancers.length <= 5, \"Maximum amount of freelancers are already working on this job\");\n        // job.freelancers.push(freelancerWallet);\n    }\n\n    function commit(uint256 jobId, bytes32 commithash) public {\n        Job memory job = jobs[jobId];\n        // job.commits.push(commithash);\n    }\n\n    // function finishJob(uint256 jobId, address payable freelancerWallet) public {\n    //     Job memory job = jobs[jobId];\n    //     for (uint i = 0; i < job.freelancers.length; i++) {\n    //         if (freelancerWallet == job.freelancers[i]) {\n    //             freelancerWallet.transfer(job.fee);\n    //         }\n    //     }\n    // }\n\n    function finishJob(uint256 jobId, address payable freelancerWallet) public {\n        Job memory job = jobs[jobId];\n\n        freelancerWallet.transfer(job.fee);\n    }\n}",
  "sourcePath": "/git/nbc-hack-freelancehub/contracts/FreelanceContract.sol",
  "compiler": {
    "name": "solc",
    "version": "0.5.8+commit.23d335f2.Emscripten.clang"
  },
  "schemaVersion": "3.0.11",
  "updatedAt": "2019-06-16T01:40:58.521Z",
  "devdoc": {
    "methods": {}
  },
  "userdoc": {
    "methods": {}
  }
}