{
  "contractName": "FreelanceHub",
  "abi": [
    {
      "constant": true,
      "inputs": [
        {
          "name": "",
          "type": "uint256"
        }
      ],
      "name": "jobs",
      "outputs": [
        {
          "name": "status",
          "type": "uint8"
        },
        {
          "name": "owner",
          "type": "address"
        },
        {
          "name": "fee",
          "type": "uint256"
        }
      ],
      "payable": false,
      "stateMutability": "view",
      "type": "function"
    },
    {
      "constant": true,
      "inputs": [],
      "name": "numJobs",
      "outputs": [
        {
          "name": "",
          "type": "uint256"
        }
      ],
      "payable": false,
      "stateMutability": "view",
      "type": "function"
    },
    {
      "inputs": [],
      "payable": false,
      "stateMutability": "nonpayable",
      "type": "constructor"
    },
    {
      "constant": false,
      "inputs": [
        {
          "name": "fee",
          "type": "uint256"
        }
      ],
      "name": "createJob",
      "outputs": [
        {
          "name": "jobId",
          "type": "uint256"
        }
      ],
      "payable": false,
      "stateMutability": "nonpayable",
      "type": "function"
    },
    {
      "constant": false,
      "inputs": [
        {
          "name": "jobId",
          "type": "uint256"
        },
        {
          "name": "freelancerWallet",
          "type": "address"
        }
      ],
      "name": "finishJob",
      "outputs": [],
      "payable": false,
      "stateMutability": "nonpayable",
      "type": "function"
    }
  ],
  "bytecode": "0x60806040526000805534801561001457600080fd5b506106a0806100246000396000f3fe608060405234801561001057600080fd5b506004361061004c5760003560e01c8063180aedf3146100515780639212051c146100db578063b1a9dcb2146100f9578063f4b1d37614610147575b600080fd5b61007d6004803603602081101561006757600080fd5b8101908080359060200190929190505050610189565b6040518084600181111561008d57fe5b60ff1681526020018373ffffffffffffffffffffffffffffffffffffffff1673ffffffffffffffffffffffffffffffffffffffff168152602001828152602001935050505060405180910390f35b6100e36101e0565b6040518082815260200191505060405180910390f35b6101456004803603604081101561010f57600080fd5b8101908080359060200190929190803573ffffffffffffffffffffffffffffffffffffffff1690602001909291905050506101e6565b005b6101736004803603602081101561015d57600080fd5b8101908080359060200190929190505050610379565b6040518082815260200191505060405180910390f35b60016020528060005260406000206000915090508060000160009054906101000a900460ff16908060000160019054906101000a900473ffffffffffffffffffffffffffffffffffffffff16908060010154905083565b60005481565b6101ee61052b565b600160008481526020019081526020016000206040518060800160405290816000820160009054906101000a900460ff16600181111561022a57fe5b600181111561023557fe5b81526020016000820160019054906101000a900473ffffffffffffffffffffffffffffffffffffffff1673ffffffffffffffffffffffffffffffffffffffff1673ffffffffffffffffffffffffffffffffffffffff168152602001600182015481526020016002820180548060200260200160405190810160405280929190818152602001828054801561031e57602002820191906000526020600020905b8160009054906101000a900473ffffffffffffffffffffffffffffffffffffffff1673ffffffffffffffffffffffffffffffffffffffff16815260200190600101908083116102d4575b50505050508152505090508173ffffffffffffffffffffffffffffffffffffffff166108fc82604001519081150290604051600060405180830381858888f19350505050158015610373573d6000803e3d6000fd5b50505050565b600080670de0b6b3a76400008302905067016345785d8a000081116103e9576040517f08c379a00000000000000000000000000000000000000000000000000000000081526004018080602001828103825260338152602001806106426033913960400191505060405180910390fd5b6000808154600101919050819055915061040161052b565b60405180608001604052806000600181111561041957fe5b81526020013373ffffffffffffffffffffffffffffffffffffffff16815260200183815260200160006040519080825280602002602001820160405280156104705781602001602082028038833980820191505090505b508152509050806001600085815260200190815260200160002060008201518160000160006101000a81548160ff021916908360018111156104ae57fe5b021790555060208201518160000160016101000a81548173ffffffffffffffffffffffffffffffffffffffff021916908373ffffffffffffffffffffffffffffffffffffffff160217905550604082015181600101556060820151816002019080519060200190610520929190610574565b509050505050919050565b60405180608001604052806000600181111561054357fe5b8152602001600073ffffffffffffffffffffffffffffffffffffffff16815260200160008152602001606081525090565b8280548282559060005260206000209081019282156105ed579160200282015b828111156105ec5782518260006101000a81548173ffffffffffffffffffffffffffffffffffffffff021916908373ffffffffffffffffffffffffffffffffffffffff16021790555091602001919060010190610594565b5b5090506105fa91906105fe565b5090565b61063e91905b8082111561063a57600081816101000a81549073ffffffffffffffffffffffffffffffffffffffff021916905550600101610604565b5090565b9056fe4d696e696d756d20616d6f756e74206e656365737361727920746f206372656174652061206a6f6220697320302e3120455448a165627a7a723058205f0d40d805aa4013e48d098a3aa8aa6fd478abfef263308e8bb6cd3974c586fe0029",
  "source": "pragma solidity ^0.5.0;\n\ncontract FreelanceHub {\n\n    enum JobStatus { ongoing, completed }\n\n    struct Job {\n        JobStatus status;\n        address owner;\n        uint fee;\n        address[] freelancers;\n    }\n\n    uint256 public numJobs = 0;\n    mapping(uint256 => Job) public jobs;\n\n    constructor() public {}\n\n    function createJob(\n        uint256 fee\n    ) public returns(uint256 jobId) {\n        uint256 actualFee = fee * 1000000000000000000;\n        require(actualFee > 100 finney, \"Minimum amount necessary to create a job is 0.1 ETH\");\n        jobId = ++numJobs;\n        Job memory newJob = Job(\n            JobStatus.ongoing,\n            msg.sender,\n            actualFee,\n            new address[](0)\n        );\n        jobs[jobId] = newJob;\n    }\n\n    // function startJob(uint256 jobId, address payable freelancerWallet) public {\n    //     Job memory job = jobs[jobId];\n    //     require(job.status == JobStatus.ongoing, \"This job is already completed\");\n    //     require(job.freelancers.length <= 5, \"Maximum amount of freelancers are already working on this job\");\n    //     job.freelancers.push(freelancerWallet);\n    // }\n\n    // function finishJob(uint256 jobId, address payable freelancerWallet) public {\n    //     Job memory job = jobs[jobId];\n    //     for (uint i = 0; i < job.freelancers.length; i++) {\n    //         if (freelancerWallet == job.freelancers[i]) {\n    //             freelancerWallet.transfer(job.fee);\n    //         }\n    //     }\n    // }\n\n    function finishJob(uint256 jobId, address payable freelancerWallet) public {\n        Job memory job = jobs[jobId];\n\n        freelancerWallet.transfer(job.fee);\n    }\n}",
  "sourcePath": "/git/nbc-hack-freelancehub/contracts/FreelanceContract.sol",
  "compiler": {
    "name": "solc",
    "version": "0.5.8+commit.23d335f2.Emscripten.clang"
  },
  "schemaVersion": "3.0.11",
  "updatedAt": "2019-06-15T08:55:41.463Z",
  "devdoc": {
    "methods": {}
  },
  "userdoc": {
    "methods": {}
  }
}